S0260000456C656374726F6E69632D566F74696E672D4D616368696E652D636F64652E73726563A8
S11300000C942A000C9447000C9447000C9447006D
S11300100C9447000C9447000C9447000C94470040
S11300200C9447000C9447000C9447000C94470030
S11300300C9447000C9447000C9447000C94470020
S11300400C9447000C9447000C9447000C94470010
S11300500C94470011241FBECFE5D8E0DEBFCDBF0E
S113006010E0A0E6B0E0E8EBFCE002C005900D92E1
S1130070A038B107D9F710E0A0E8B0E001C01D92A4
S1130080A038B107E1F70E94A5020C945A060C941B
S1130090000040E00E94500008950E945601089517
S11300A0823451F1833420F4813409F07BC007C0D9
S11300B0833409F43EC0843409F074C057C041301D
S11300C069F42AB381E090E0AC0102C0440F551FEB
S11300D06A95E2F7BA01622B6ABB08952AB381E0FC
S11300E090E0AC0102C0440F551F6A95E2F7BA01D3
S11300F0609562236ABB0895413069F427B381E0B7
S113010090E0AC0102C0440F551F6A95E2F7BA01B2
S1130110622B67BB089527B381E090E0AC0102C075
S1130120440F551F6A95E2F7BA016095622367BBD5
S11301300895413069F424B381E090E0AC0102C039
S1130140440F551F6A95E2F7BA01622B64BB089508
S113015024B381E090E0AC0102C0440F551F6A95BE
S1130160E2F7BA016095622364BB0895413069F4F3
S113017021B381E090E0AC0102C0440F551F6A95A1
S1130180E2F7BA01622B61BB089521B381E090E0EC
S1130190AC0102C0440F551F6A95E2F7BA0160959D
S11301A0622361BB0895823451F1833420F4813495
S11301B009F07BC007C0833409F43EC0843409F0DD
S11301C074C057C0413069F42BB381E090E0AC01B6
S11301D002C0440F551F6A95E2F7BA01622B6BBB4C
S11301E008952BB381E090E0AC0102C0440F551F89
S11301F06A95E2F7BA01609562236BBB08954130BA
S113020069F428B381E090E0AC0102C0440F551FAB
S11302106A95E2F7BA01622B68BB089528B381E0BE
S113022090E0AC0102C0440F551F6A95E2F7BA0191
S11302306095622368BB0895413069F425B381E079
S113024090E0AC0102C0440F551F6A95E2F7BA0171
S1130250622B65BB089525B381E090E0AC0102C038
S1130260440F551F6A95E2F7BA016095622365BB96
S11302700895413069F422B381E090E0AC0102C0FA
S1130280440F551F6A95E2F7BA01622B62BB0895C9
S113029022B381E090E0AC0102C0440F551F6A957F
S11302A0E2F7BA016095622362BB08958234A1F03B
S11302B0833418F4813471F505C08334B9F084347F
S11302C049F51EC029B330E0C90102C09595879550
S11302D06A95E2F78170089526B330E0C90102C03F
S11302E0959587956A95E2F78170089523B330E078
S11302F0C90102C0959587956A95E2F781700895C2
S113030020B330E0C90102C0959587956A95E2F75C
S11303108170089580E008958234B9F0833418F42C
S11303208134C9F505C08334E9F08434A1F527C0CC
S11303302BB381E090E0AC0102C0440F551F6A95D5
S1130340E2F7BA0162276BBB089528B381E090E01D
S1130350AC0102C0440F551F6A95E2F7BA01622747
S113036068BB089525B381E090E0AC0102C0440F5E
S1130370551F6A95E2F7BA01622765BB089522B357
S113038081E090E0AC0102C0440F551F6A95E2F78A
S1130390BA01622762BB0895823461F0833418F491
S11303A0813469F405C0833439F0843441F406C0DF
S11303B06ABB089567BB089564BB089561BB089543
S11303C0823461F0833418F4813469F405C08334D1
S11303D039F0843441F406C06BBB089568BB0895BA
S11303E065BB089562BB0895823461F0833418F4C8
S11303F0813471F405C0833439F0843449F406C07F
S113040089B3089586B3089583B3089580B3089596
S113041080E008950F931F93CF93DF93082FD62F77
S1130420C42F142F1C5F4D2F4170802F6C2F0E94FE
S1130430D300D695CF5FC117B1F7DF91CF911F914C
S11304400F910895823451F1833420F4813409F0FA
S11304507BC007C0833409F43EC0843409F074C0FF
S113046057C0413069F42BB381E090E0AC0102C085
S1130470440F551F6A95E2F7BA01622B6BBB0895CE
S11304802BB381E090E0AC0102C0440F551F6A9584
S1130490E2F7BA01609562236BBB0895413069F4B9
S11304A028B381E090E0AC0102C0440F551F6A9567
S11304B0E2F7BA01622B68BB089528B381E090E0AB
S11304C0AC0102C0440F551F6A95E2F7BA0160956A
S11304D0622368BB0895413069F425B381E090E05C
S11304E0AC0102C0440F551F6A95E2F7BA01622BB2
S11304F065BB089525B381E090E0AC0102C0440FD0
S1130500551F6A95E2F7BA016095622365BB0895A9
S1130510413069F422B381E090E0AC0102C0440FA1
S1130520551F6A95E2F7BA01622B62BB089522B3A4
S113053081E090E0AC0102C0440F551F6A95E2F7D8
S1130540BA016095622362BB0895CF93DF93CDB760
S1130550DEB760970FB6F894DEBF0FBECDBF83E45D
S113056064E043E422E003E4EE24E3940F2EF3E496
S1130570CF2EF02D0F2EF3E0AF2EF02D88246894AB
S113058082F80E94180510E084E4612F0E9449005B
S11305901F5F1430C9F783E464E043E421E003E41B
S11305A00F2EF3E0EF2EF02DCC246894C2F80F2E1A
S11305B0F0E6AF2EF0E0BF2EF02D0E94BC0481E0E7
S11305C06AE043E424E0EE24E3940F2EF3E4CF2E18
S11305D0F02D0F2EF3E0AF2EF02D8824689482F8CE
S11305E00E94C40583E464E043E421E00F2EF3E0B9
S11305F0EF2EF02DCC246894C2F80F2EF8E6AF2E1F
S1130600F0E0BF2EF02D0E94BC0482E061E043E4E0
S113061024E0EE24E3940F2EF3E4CF2EF02D0F2EDE
S1130620F3E0AF2EF02D0E94C40583E464E043E4BC
S113063021E00F2EF3E0EF2EF02DCC246894C2F8C5
S11306400F2EF0E7AF2EF0E0BF2EF02D0E94BC0479
S113065082E06AE043E424E0EE24E3940F2EF3E422
S1130660CF2EF02D0F2EF3E0AF2EF02D0E94C405F7
S113067083E464E043E421E00F2EF3E0EF2EF02D59
S1130680CC246894C2F80F2EF8E7AF2EF0E0BF2E0A
S1130690F02D0E94BC0483E464E043E421E0AA2436
S11306A06894A2F80E942804FE01319688E0DF01D4
S11306B01D928A95E9F781E089878A8782E08B8792
S11306C08C8797E09D8780E18E879F87888B10E0D9
S11306D00F2EF5E0DF2EF02D0F2EFAE04F2E5524CD
S11306E0F02DFF242FC084E4612F0E944D00882345
S11306F031F1612E7724660C771CE1E0F0E0EC0F19
S1130700FD1F6E0E7F1ED3016D917C916F5F7F4F35
S1130710882777FD8095982F20EA36E841E050E05D
S11307200E940906DC01CB01F30191838083012F30
S113073084E4612F0E944D008823D1F707C01F5F16
S113074001C01F2D143078F21F2DFCCF0F3FC9F3C9
S1130750E02FFF27E7FDF095DF01AA0FBB1F81E023
S113076090E08C0F9D1FA80FB91F6D907C90A9E09D
S1130770B0E0AC0FBD1FAE0FBF1F8DE090E08C0F3B
S11307809D1FE80FF91F8C91608143E424E003E48A
S1130790EE24E3940F2EF3E4CF2EF02D0F2EF3E08E
S11307A0AF2EF02D8824689482F80E94C4051D2D74
S11307B06114710491F483E464E043E421E003E40C
S11307C00F2EF3E0EF2EF02DCC246894C2F8AA2467
S11307D06894A5F80E94720417C0C301B2010E9474
S11307E0F6050F2EF0E3AF2EF02DA80E83E464E09F
S11307F043E421E003E40F2EF3E0EF2EF02DCC24AC
S11308006894C2F80E947204C301B2010E94F60502
S11308103B01115069F61F2D95CFCF93DF93D82F4D
S1130820C62F41E00E94D3008FE99FE00197F1F7C2
S113083000C000008D2F6C2F40E00E94D3008FE990
S11308409FE00197F1F700C00000DF91CF91089578
S1130850AF92CF92EF92FF920F931F93CF93DF93B8
S1130860C82FD62F142FF22E88E0C81671F48C2FBF
S11308706A2D0E94E001812F6F2D40E00E94D30079
S1130880802F6E2D0E940D041EC06A2D62956F701C
S11308908C2F4D2F0E940A02812F6F2D40E00E9461
S11308A0D300802F6E2D0E940D048C2F6A2D4D2FA6
S11308B00E940A02812F6F2D40E00E94D300802FF6
S11308C06E2D0E940D048FEC97E00197F1F700C0A4
S11308D00000DF91CF911F910F91FF90EF90CF9087
S11308E0AF900895AF92CF92EF92FF920F931F9320
S11308F0CF93DF93C82FD62F142FF22E88E0C8167B
S113090071F48C2F6A2D0E94E001812F6F2D41E03C
S11309100E94D300802F6E2D0E940D041EC06A2DEC
S113092062956F708C2F4D2F0E940A02812F6F2DBC
S113093041E00E94D300802F6E2D0E940D048C2F65
S11309406A2D4D2F0E940A02812F6F2D41E00E94D3
S1130950D300802F6E2D0E940D048FEC97E0019739
S1130960F1F700C00000DF91CF911F910F91FF902C
S1130970EF90CF90AF9008956F927F928F929F9255
S1130980AF92BF92CF92DF92EF92FF920F931F9399
S1130990CF93DF93682E762E842E922ED02EFE2CAB
S11309A01C2DE501A880AA2069F02196862D672DCB
S11309B0482D292D0D2DEF2CC12E0E947204A990D3
S11309C0AA20A1F7DF91CF911F910F91FF90EF9093
S11309D0DF90CF90BF90AF909F908F907F906F905B
S11309E00895AF92CF92EF920F93AA24A3940E94FA
S11309F028048FE19EE40197F1F700C000000F91F5
S1130A00EF90CF90AF900895AF92CF92EF920F9363
S1130A10AA246894A1F80E9428048FE19EE4019717
S1130A20F1F700C000000F91EF90CF90AF900895C0
S1130A305F926F927F928F929F92AF92BF92CF926A
S1130A40DF92EF92FF920F931F93CF93DF93CDB773
S1130A50DEB7982E762E642E522ED02EBE2C1C2D50
S1130A60FA2C8FE798E3A1E081509040A040E1F791
S1130A7000C0000098E0891641F5892D6FEF0E94AF
S1130A80CC018C2D6A2D41E00E945000862D652DED
S1130A9041E00E945000802F6E2D41E00E945000E2
S1130AA0862D652D40E00E94D300892D672D402FAF
S1130AB02E2D0C2DEA2CCC246894C3F80F2EF8E3C9
S1130AC0AF2EF02D0E94280432C06FE070E0072C96
S1130AD002C0660F771F0A94E2F7892D0E94CC01A9
S1130AE08C2D6A2D41E00E945000862D652D41E039
S1130AF00E945000802F6E2D41E00E945000862DF0
S1130B00652D40E00E94D300892D672D402F2E2DA6
S1130B100C2DEA2CC82C0E940405892D672D4D2D1F
S1130B202B2D0F2EF8E2AF2EF02D0E942804892DD4
S1130B30672D4D2D2B2D012FEF2CC82C0F2EFCE0F3
S1130B40AF2EF02D0E942804892D672D4D2D2B2DBD
S1130B500E94F104892D672D4D2D2B2D0F2EF6E0CB
S1130B60AF2EF02D0E942804DF91CF911F910F9199
S1130B70FF90EF90DF90CF90BF90AF909F908F90B9
S1130B807F906F905F9008958F92AF92CF92EF9283
S1130B900F93CF93DF93CDB7DEB7582F5150523018
S1130BA070F4613170F4662371F0813019F4962F7A
S1130BB091580AC0823041F4962F915405C090E8B0
S1130BC003C090E801C090E8842F622F402F2E2D9F
S1130BD00C2DEA2CC82CA92E0E942804DF91CF9159
S1130BE00F91EF90CF90AF908F90089597FB092EBF
S1130BF007260AD077FD04D027D006D000201AF4A7
S1130C00709561957F4F0895F6F7909581959F4F64
S1130C10089597FB092E05260ED057FD04D028D041
S1130C200AD0001C38F450954095309521953F4FDB
S1130C304F4F5F4F0895F6F79095809570956195A5
S1130C407F4F8F4F9F4F0895AA1BBB1B51E107C0D5
S1130C50AA1FBB1FA617B70710F0A61BB70B881F48
S1130C60991F5A95A9F780959095BC01CD010895D7
S1130C70A1E21A2EAA1BBB1BFD010DC0AA1FBB1F9C
S1130C80EE1FFF1FA217B307E407F50720F0A21B0E
S1130C90B30BE40BF50B661F771F881F991F1A947B
S1130CA069F760957095809590959B01AC01BD01A5
S10B0CB0CF010895F894FFCF71
S1130CB8413D202020203000423D202020203000CB
S1130CC8433D202020203000443D202020203000B7
S9030000FC
